:020000040800F2
:1000000000000120C5020008CB020008CF02000852
:1000100041030008450300088D03000800000000AC
:10002000000000000000000000000000D5030008F0
:10003000D903000800000000DD03000811070008D4
:10004000F1030008F1030008F1030008F1030008C0
:10005000F1030008F1030008F1030008F1030008B0
:10006000F1030008F1030008F1030008F1030008A0
:10007000F1030008F1030008F1030008F103000890
:10008000F1030008F1030008F1030008000000007C
:10009000000000000000000000000000F103000864
:1000A000F1030008F1030008F1030008F103000860
:1000B000F1030008F1030008F1030008F103000850
:1000C000F1030008F1030008F1030008F103000840
:1000D000F1030008AD060008C90600080000000092
:1000E000F1030008F1030008F1030008000000001C
:1000F000000000000000000000000000F103000804
:1001000000000000F1030008F1030008F1030008FB
:1001100000000000000000000000000000000000DF
:10012000F1030008F1030008F1030008F1030008DF
:10013000F1030008000000000000000000000000C3
:10014000000000000000000000000000F1030008B3
:10015000F1030008F1030008F1030008E5060008B8
:10016000F1030008F1030008000000000000000097
:10017000000000000000000000000000000000007F
:1001800000000000F1030008000000000000000073
:10019000F103000800B583B000F0BAF9384B394AD2
:1001A0001360394A1360394900E02146384B9942BF
:1001B0000BD20A684B6801F10C0488689842F4D9A4
:1001C0001168196004330432F8E72E4B1A68314B7A
:1001D0009A4200D0FEE72C4B1A682F4B9A42F9D175
:1001E000274B2E4A13602E4A13602E4B05E0002049
:1001F000106004329342FAD80B462B4A934204D241
:10020000194651F8082B5B68F4E7244B1B6813B9B7
:10021000234B1B6803B1FEE700F0F0FB694601A821
:1002200000F022F9214C224BE41AA4100025AC4224
:1002300014DC204C204BE41AA4100025AC4213DC43
:100240000099019800F0DBFB05461C4C1C4BE41A9E
:10025000A410002C0EDC284600F0E2F8144B53F8F2
:10026000253098470135E2E7134B53F8253098477E
:100270000135E3E7013C124B53F824309847E8E797
:10028000BABADECA0000002070000020F4030008A3
:100290000C0400087856341232547698740000200A
:1002A000200200200C0400081C0400081C040008A4
:1002B0001C0400081C0400081C0400081C0400089E
:1002C0001C04000808B5FFF765FF00BEFEE71EF03E
:1002D000040F0CBFEFF30880EFF309807146414A29
:1002E00010472DE9F04182B004468846124B5E6B00
:1002F0009F6B9D6A1B6B13F0020F03D00E4BDB6AE2
:10030000002B0CDB0D4800F0B7F8CDF800803B4621
:1003100032462946204600F007F900BEFEE74BF6BC
:10032000AB6100F07BF90028ECD0034B4FF00042AA
:10033000DA6202B0BDE8F08100ED00E014140008BC
:1003400000BEFEE71EF0040F0CBFEFF30880EFF3D2
:1003500009807146244A10472DE9F04182B00446D5
:100360008846084B5E6B9F6B9D6A074800F084F8D7
:10037000CDF800803B4632462946204600F0D4F8AE
:1003800000BEFEE700ED00E0241400081EF0040F9C
:100390000CBFEFF30880EFF309807146134A104752
:1003A0002DE9F04182B004468846084B5E6B9F6B96
:1003B0009D6A074800F060F8CDF800803B46324661
:1003C0002946204600F0B0F800BEFEE700ED00E050
:1003D0003014000800BEFEE700BEFEE700BEFEE7E8
:1003E00070470000E302000859030008A103000859
:0403F00000BEFEE766
:1003F4007414000800000020740000207414000825
:1004040000000010000000107400002024020020EE
:080414000000001000000010C0
:10042000FEE7000008B503460C4A12685AB10B4AB1
:100430001068033323F003030344094A934206D8A8
:10044000064A136008BD054A06491160EFE700F04F
:10045000DBFA0C2303604FF0FF30F3E77800002055
:1004600000FC00202402002001230360014B0B60EC
:10047000704700BF040000200FB400B583B004AB88
:1004800053F8042B01938021064800F0EFFA00286E
:1004900003DD0146034800F037F803B05DF804EBD4
:1004A00004B07047800000202DE9F04385B0044679
:1004B0000F4643560BB10E461EE004252846214642
:1004C000ABBE0446384605B0BDE8F08314F9011B05
:1004D00004AA1A4402F8101C0133AB42F6D304AA52
:1004E0001344002203F8102C4FF00408E94640465C
:1004F0004946ABBE8046761B002EE3D03546102E13
:1005000028BF10250023E8E708B5FFF7CDFF08BD99
:1005100008B500F093F8024A024B9A6008BD00BF8C
:100520000000000800ED00E0F8B504460D4617464F
:100530001E462748FFF7A0FF21682648FFF79CFFCB
:1005400061682548FFF798FFA1682448FFF794FFEA
:10055000E1682348FFF790FF21692248FFF78CFFED
:1005600061692148FFF788FFA1692048FFF784FFF0
:10057000E1691F48FFF780FF1E48FFF77DFF29460E
:100580001D48FFF779FF1D4CE16A1D48FFF774FF16
:10059000216B1C48FFF770FFE16B1B48FFF76CFFF6
:1005A00015F0800F0AD115F4004F0CD11748FFF752
:1005B00063FF06991648FFF75FFFF8BD39461548F7
:1005C000FFF75AFFEFE731461348FFF755FFEDE716
:1005D000F812000808130008181300082813000870
:1005E000381300084813000858130008681300085F
:1005F00078130008881300089413000800ED00E049
:10060000A4130008B4130008C4130008F41300086E
:10061000FC130008D4130008E413000883691A8847
:100620008A4201D0002070470268033A012A03D8A9
:100630000233836101207047002070470C4B1A6819
:1006400042F001021A60002199601A6822F0847257
:1006500022F480321A60074A5A601A6822F4802213
:100660001A60D960044B4FF000629A60704700BF77
:10067000003802401030002400ED00E0036813F061
:10068000800FFBD04160036813F0400FFBD003687C
:1006900023F0400303607047036813F0200F03D07A
:1006A00043680B70012070470020704708B5044B69
:1006B00000221A60034B1B6803B1984708BD00BFB6
:1006C000001001401C01002008B5044B00221A60F4
:1006D000034B1B6803B1984708BD00BF00440040AE
:1006E0001401002008B5044B00221A60034B1B685C
:1006F00003B1984708BD00BF001401401801002055
:10070000024A136823F001031360704710E000E011
:1007100008B50D4B1B78012B06D00C4B1B6803B1A1
:1007200098470B4B1B6808BD094B1A6822F0020260
:100730001A601A6822F001021A6000225A609A6058
:10074000014B1A70E9E700BF0401002000010020FE
:1007500010E000E0174BDB6813F4803FFAD1154B33
:100760001B69002B1FDB134B1A6922F078021A61F8
:100770001A6942EAC00018611A6942F002021A615D
:100780001A6942F480321A610A4BDB6813F4803F25
:10079000FAD1084BDA6842F00102DA601A6922F0F5
:1007A00002021A617047034B034A5A6002F1883211
:1007B0005A60D8E7003C02402301674530B41B4B28
:1007C000DB6813F4803FFAD1184B1B69002B0EDB5A
:1007D000164B1C6924F440741C611C6944F4807439
:1007E0001C611C6944F001041C61002415E00F4BDE
:1007F0000F4C5C6004F188345C60E9E731F8143038
:1008000020F8023B094BDB6813F4803FFAD1074D17
:10081000EB6843F00103EB6001349442EED3034AEA
:10082000136923F00103136130BC7047003C0240A0
:100830002301674510B5012404E02046FFF78AFF35
:100840000134E4B2072CF8D910BD0246A0F1300300
:10085000D8B2092809D9A2F14103DBB2052B03D88C
:10086000A2F13700C0B27047002070472DE9F84F61
:100870002C4B1B8A342B52D005464078FFF7E5FFFE
:100880000746A878FFF7E1FF40EA0717FFB2E878CC
:10089000FFF7DBFF06462879FFF7D7FF8146687927
:1008A000FFF7D3FF8046A879FFF7CFFF360346F066
:1008B000006646EA092646EA08160643002427E0B1
:1008C0004FEA840B0BF10903E85CFFF7BEFF81469A
:1008D0000BF10A03E85CFFF7B8FF80460BF10B034E
:1008E000E85CFFF7B2FF82460BF10C0B15F80B002A
:1008F000FFF7ABFF030243EA0A331BB243EA0913D3
:100900001BB243EA0803074A22F81430013464B2E8
:100910007A089442D4DB03493046FFF74FFFBDE825
:10092000F88F00BF2001002008B5FFF783FF08BD46
:1009300008B5064B01221A70054B064A1A60064B91
:100940001B68064A1360984708BD00BF06010020D7
:1009500008ED00E000400008044000081C020020F0
:1009600008B5064B1B7803B108BDFFF7C9FEFFF7BA
:10097000DBFF024B01221A70F6E700BF07010020DF
:1009800038B50025194B1B7873BB194B1B781949D7
:1009900019441948FFF780FE04460128F2D18DB1B1
:1009A000134B1B78134AD25C0A2A0FD00133104A2A
:1009B0001370104B1B7A312B13D06B210E48FFF7AD
:1009C0005DFEDFE7FFF7CCFF2546E9E70948FFF7C3
:1009D0004DFF6B210848FFF751FE054B00221A70AE
:1009E000E7E7FFF7A5FFE8E738BD00BF06010020F5
:1009F00005010020E801002000440040704708B5D0
:100A0000FFF7BEFFFEE70000014B1868704700BF0C
:100A10000C00002030B5141E05469BB0184605DAC0
:100A20008B232B604FF0FF301BB030BD4FF40273AF
:100A3000ADF80C3014BF04F1FF3323460293059345
:100A40004FF6FF7300910491ADF80E3002461E9BE5
:100A50006946284600F072F8431CBCBF8B232B600C
:100A6000002CE1D0009B00221A70DDE707B500934F
:100A700013460A46014603480068FFF7CBFF03B060
:100A80005DF804FB0C0000202DE9F0478E689E42C3
:100A900082460C469046994637D88A8912F4906F60
:100AA00031D0256809696F1A6569022305EB450590
:100AB00095FBF3F509F101033B449D4238BF1D4608
:100AC000530530D5294600F07DFB064650B90C236E
:100AD000CAF80030A38943F04003A3814FF0FF30F0
:100AE000BDE8F0873A46216900F0FAFAA38923F4B9
:100AF000906343F08003A381266165613E44ED1B52
:100B00002660A5604E464E4500D94E4632464146C7
:100B1000206800F0F0FAA3689B1BA36023681E44C2
:100B200026600020DCE72A4600F0A6FB06460028E7
:100B3000E2D12169504600F0F7FAC8E72DE9F04FFD
:100B40009DB0804603938B891D060C4616460FD533
:100B50000B696BB9402100F035FB2060206128B99A
:100B60000C23C8F800304FF0FF30C7E0402363612A
:100B70000023099320238DF8293030238DF82A3063
:100B80004FF0010B37463D4615F8013B0BB1252BC5
:100B90003ED1B7EB060A0BD05346324621464046BB
:100BA000FFF772FF013000F0A480099B53440993C2
:100BB0003B78002B00F09D8000234FF0FF32CDE901
:100BC0000523049307938DF853301A932F4605227B
:100BD00017F8011B4F4800F033FA049BD0B9D9062F
:100BE00044BF20228DF853201A0744BF2B228DF8D2
:100BF00053202A782A2A15D0079A2F4600200A2542
:100C0000394611F8013B303B092B4DD9B8B10FE003
:100C10002F46B8E73F4A801A0BFA00F018430490B9
:100C20003D46D3E7039A111D12680391002A01DBA8
:100C3000079204E0524243F00203079204933B7888
:100C40002E2B0CD17B782A2B33D1039B1A1D1B68CA
:100C50000392002BB8BF4FF0FF33023705932E4DA0
:100C600039780322284600F0EBF938B14023401BC5
:100C700003FA00F0049B03430137049339782748B3
:100C80008DF8281006227E1C00F0DAF9002838D0F2
:100C9000234B13BB039B073323F007030833039352
:100CA000099B4B4409936DE705FB023201200F4677
:100CB000A6E700230137059319460A25384610F8A0
:100CC000012B303A092A03D9002BC8D00591C6E779
:100CD00005FB012101230746F0E703AB0093224601
:100CE000104B04A94046AFF30080B0F1FF3F8146AE
:100CF000D6D1A3895B063FF536AF09981DB0BDE894
:100D0000F08F03AB00932246064B04A9404600F047
:100D100081F8EAE740140008461400084A14000865
:100D200000000000890A00082DE9F04791461F469F
:100D30008A680B69DDF820809342B8BF1346C9F872
:100D4000003091F8432006460C4612B10133C9F831
:100D500000302368990642BFD9F800300233C9F841
:100D60000030256815F0060507D104F1190AE3687B
:100D7000D9F800209B1AAB4228DC94F84330226853
:100D8000003318BF012392062DD404F143023946E3
:100D90003046C047013020D02368E568D9F80020EC
:100DA00003F00603042B08BFAD1AA36822690CBF29
:100DB00025EAE57500259342C4BF9B1AED184FF054
:100DC00000091A344D451AD1002008E0012352468B
:100DD00039463046C047013003D14FF0FF30BDE8FF
:100DE000F0870135C3E7E1185A1C302081F8430031
:100DF000224494F8451082F843100233C5E70123DA
:100E0000224639463046C0470130E6D009F1010993
:100E1000D8E700002DE9F04301F1430C0C46097EB0
:100E200085B06E291746064698460C9A00F0B380A6
:100E300022D8632936D00AD8002900F0B980582971
:100E400000F0838004F1420584F8421032E0642906
:100E500001D06929F6D120681368050603F1040161
:100E60002AD51B681160002B03DA2D225B4284F81F
:100E700043206F480A2239E0732900F09D8008D88A
:100E80006F2920D07029DDD1236843F0200323602F
:100E900003E0752917D07829D4D1782384F8453018
:100EA000644855E01368191D1B68116004F1420580
:100EB00084F8423001238CE01B68116010F0400F71
:100EC00018BF1BB2CFE713682568181D10602806ED
:100ED00001D51B6802E06806FBD51B8854486F29C2
:100EE00014BF0A220822002184F843106568A56017
:100EF000002DC0F29580216821F004012160002BB3
:100F00003DD1002D40F08E806546082A0BD1236824
:100F1000DB0708D5236962689A42DEBF302305F8F3
:100F2000013C05F1FF35ACEB05032361CDF80080F2
:100F30003B4603AA21463046FFF7F6FE01304DD16D
:100F40004FF0FF3005B0BDE8F083394884F8451014
:100F5000136821681D1D1B6815600A060BD5CA079A
:100F600044BF41F0200121601BB9226822F0200219
:100F700022601022B7E74D0648BF9BB2EFE76546F7
:100F8000B3FBF2F102FB1133C35C05F8013D0B46E4
:100F90000029F5D1B9E7136825686169181D10604B
:100FA00028061B6801D5196002E06A06FBD5198086
:100FB000002323616546B9E71368191D11601D6898
:100FC00062680021284600F03BF808B1401B6060D1
:100FD00063682361002384F84330A7E723692A4626
:100FE00039463046C0470130AAD023689B0713D446
:100FF000E068039B9842B8BF1846A3E701234A461E
:1010000039463046C04701309AD00135E368039A2B
:101010009B1AAB42F2DCEBE7002504F11909F5E776
:10102000002BACD1037884F8423004F142056CE720
:1010300051140008621400080000000000000000C5
:1010400001F0FF01102A2BDB10F0070F08D010F879
:10105000013B013A8B422DD010F0070F42B3F6D17D
:10106000F0B441EA012141EA014122F007047FF096
:1010700000070023F0E80256083C85EA010586EAED
:10108000010685FA47F5A3FA87F586FA47F6A5FA29
:1010900087F68EB9EED1F0BC01F0FF0102F0070235
:1010A00032B110F8013B013A83EA010313B1F8D1E0
:1010B0000020704701387047002D06BF35460338C1
:1010C000073815F0010F07D1013015F4807F02BFFA
:1010D000013015F4C03F0130F0BC0138704700BF4B
:1010E00010B5431E0A44914200D110BD11F8014BC6
:1010F00003F8014FF7E7884210B501EB020307D868
:10110000421E99420AD011F8014B02F8014FF8E74C
:101110008342F5D98118D21AD34200D110BD13F8F9
:10112000014D01F8014DF7E738B50546002945D0D6
:1011300051F8043C0C1F002BB8BFE41800F0D2F8A3
:101140001F4A1368104633B9636014602846BDE82F
:10115000384000F0C8B8A3420CD921686218934205
:1011600004BF1A685B68636004BF521822600460A1
:10117000ECE713465A680AB1A242FAD9196858181E
:10118000A0420BD120680144581882421960DDD179
:10119000106852685A6001441960D7E702D90C23DD
:1011A0002B60D3E7206821188A4204BF1168526877
:1011B000626004BF091821605C60C7E738BD00BFEA
:1011C0000801002070B5CD1C25F0030508350C2D55
:1011D00038BF0C25002D064601DBA94203D90C239C
:1011E0003360002070BD00F07DF8214A146821466C
:1011F00091B9204C23681BB9304600F063F8206099
:101200002946304600F05EF8431C24D10C2333609D
:10121000304600F068F8E4E70B685B1B18D40B2B32
:101220000FD90B60CD50CC18304600F05CF804F1BB
:101230000B00231D20F00700C31AD3D05A42E250FE
:10124000D0E78C424B6816BF636013600C46EBE737
:101250000C464968CCE7C41C24F00304A04205D026
:10126000211A304600F02EF80130CFD02560DBE7A0
:10127000080100200C010020F8B5074614460E4670
:1012800021B91146BDE8F840FFF79CBF22B9FFF72E
:101290004BFF25462846F8BD00F026F8A0420FD2A5
:1012A00021463846FFF78EFF05460028F2D031462A
:1012B0002246FFF715FF31463846FFF735FFE9E7CD
:1012C0003546E7E738B5064C002305460846236057
:1012D000FFF7A8F8431C02D1236803B12B6038BD87
:1012E000100100207047704751F8043C181F002B74
:1012F000BCBF0B58C0187047537461636B20667293
:10130000616D653A0A000000205230203D20202502
:101310003038580A00000000205231203D2020259E
:101320003038580A00000000205232203D2020258D
:101330003038580A00000000205233203D2020257C
:101340003038580A0000000020523132203D20255C
:101350003038580A00000000204C52203D20202543
:101360003038580A00000000205043203D2020253E
:101370003038580A0000000020505352203D2025EC
:101380003038580A000000004653522F4641523A66
:101390000A0000002043465352203D2020253038CB
:1013A000580A00002048465352203D20202530385E
:1013B000580A00002044465352203D202025303852
:1013C000580A00002041465352203D202025303845
:1013D000580A0000204D4D464152203D202530380E
:1013E000580A00002042464152203D202025303836
:1013F000580A00004D6973630A000000204C522F08
:101400004558435F52455455524E3D20253038587B
:101410000A0000005B486172644661756C745D0A85
:10142000000000005B4275734661756C745D0A00D4
:101430005B55736167654661756C745D0A000000F9
:10144000232D302B2000686C4C00656667454647AD
:101450000030313233343536373839414243444530
:10146000460030313233343536373839616263649F
:03147000656600AE
:10147400785634127C000020000000001000002088
:101484000000000000000000000000000000000058
:101494000000000000000000000000000000000048
:1014A4000000000000000000000000000000000038
:1014B4000000000000000000000000000000000028
:1014C4000000000000000000000000000000000018
:1014D4000000000000000000000000000000000008
:0414E4003254769870
:040000050800019559
:00000001FF
